:020000040800F2
:10000000D8150020010100081B36000875240008DF
:1000100019360008A10B00088D42000800000000FE
:10002000000000000000000000000000013A00088D
:10003000A30B0008000000008D010008053A00082D
:100040001B0100081B0100081B0100081B01000820
:100050001B0100081B0100080D0C00081B01000813
:100060001B0100081B0100081B0100081B01000800
:100070001B0100081B0100081B0100081B010008F0
:100080001B0100081B0100081B0100081B010008E0
:100090001B0100081B0100081B010008130C0008CD
:1000A0001B0100081B0100081B0100081B010008C0
:1000B000C93A00081B0100081B0100081B010008C9
:1000C0001B0100081B0100081B0100081B010008A0
:1000D0001B0100087D4000081B010008C540000806
:1000E0001B0100081B0100081B010008DFF80CD0F1
:1000F00000F0B0FB00480047097C0008D81500203C
:100100000648804706480047FEE7FEE7FEE7FEE7B1
:10011000FEE7FEE7FEE7FEE7FEE7FEE7813A0008BE
:10012000ED00000872B62C482C49026841EA020131
:1001300001602B484FF0010101602A4841680160CD
:1001400001688A884FF0100342EA03028A80D1F8DE
:1001500000C00CF1240CBCE8FF008CF309884FF0C0
:10016000020C8CF31488AE4662B63047EFF3108071
:1001700072B67047EFF3108062B6704780F3108854
:10018000704719484FF0805101607047EFF3108CB1
:1001900072B6164A126822B12DE900509047BDE8A8
:1001A0000050EFF3098020E9F01F0E4D4FF01008CA
:1001B0002E683060B78827EA0807B780686828602B
:1001C000878847EA080787800168B1E8F01F81F354
:1001D00009888CF31088704720ED00E00000FFFFD5
:1001E000700000207400002004ED00E058000020A2
:1001F0002DE9F05F0546002092469B46884606465C
:10020000814640241BE0284641464746224600F0EE
:1002100020F853465A46C01A914110D31146184649
:10022000224600F0B4F92D1A67EB01084F4622462A
:100230000120002100F0ABF917EB00094E41201E10
:10024000A4F10104DFDC484631462A464346BDE8B6
:10025000F09F202A04DB203A21FA02F000217047A7
:1002600021FA02F3D040C2F120029140084319461E
:10027000704740EA01039B0703D009E008C9121F39
:1002800008C0042AFAD203E011F8013B00F8013B50
:10029000521EF9D27047D2B201E000F8012B491E7C
:1002A000FBD270470022F6E710B513460A46044613
:1002B0001946FFF7F0FF204610BD421C10F8011B45
:1002C0000029FBD1801A704710B5002200E0521CB3
:1002D000835C8C5CA34201D1002BF8D1D8B2E1B28F
:1002E000401A10BD034611F8012B00F8012B002A1B
:1002F000F9D1184670472DE9FE4F81EA030404F056
:10030000004421F0004100944FF0000B23F0004323
:1003100050EA01045ED052EA03045BD0C3F30A54EE
:10032000C1F30A552C44A4F2F3340194A0FB025407
:10033000C1F3130141F48011C3F3130343F4801399
:1003400001FB024400FB034E840A970A44EA8154ED
:1003500047EA8357A4FB076802958D0A05FB0785CA
:100360004FEA932C04FB0C542705029D4FEA0658D4
:1003700047EA1637B5EB08056EEB070C870E920EB1
:1003800047EA811742EA8312A7FB0201B6EB0B0191
:1003900064EB00042B0D43EA0C335E1844EB1C5055
:1003A000DA465146E7FB0201C5F313044FEA0B336B
:1003B00043EA14534FEA0432019C43EA0603A4F1D2
:1003C0000C040294009CCDE900B400F035F903B0B0
:1003D000BDE8F08F00200146F9E72DE9F04D81EAF4
:1003E000030404F0004B21F0004514464FF0000ACE
:1003F00023F0004150EA050220D054EA01021DD04A
:10040000C5F30A570246C5F31303C1F31300C1F342
:100410000A5640F4801543F48013A7EB0608101B1E
:10042000D64608F2FD3873EB050002D308F1010847
:1004300001E092185B41B8F1000F03DA0020014699
:10044000BDE8F08D00204FF48011064684460EE092
:10045000171B73EB050705D3121B63EB050306435C
:100460004CEA010C49084FEA300092185B4150EA0F
:100470000107EDD152EA030012D082EA040083EAB8
:100480000501084305D0101BAB4106D20122002311
:1004900006E000224FF0004302E06FF0010253102B
:1004A0001AEB06004CEB085110EB0A0041EB0B0174
:1004B000BDE8F04D00F0B1B80EB540F23341029105
:1004C0000021CDE900110A460B4600F0B5F803B053
:1004D00000BD20F00040C10DC0F3160040F4000044
:1004E0007F2901DA00207047962903DCC1F19601CB
:1004F000C8407047963988407047C1F30A52C1F32B
:10050000130140F2FF3341F480119A4202DA0020D5
:100510000146704740F233439A42A2F2334202DC72
:100520005242FFF796BE00F032B801F0004330B4FB
:1005300021F0004150EA010206D00A0DA2F56072D6
:10054000C1F31301002A02DC30BC00207047440FC5
:1005500044EAC104C100E01830BC00EBC25000F016
:1005600025B830B50B46014600202022012409E0C1
:1005700021FA02F59D4205D303FA02F5491B04FA5C
:1005800002F52844151EA2F10102F1DC30BD202A3B
:1005900004DB203A00FA02F1002070479140C2F1DA
:1005A000200320FA03F31943904070470029A8BFA5
:1005B0007047401C490008BF20F00100704710B48C
:1005C000B0FA80FC00FA0CF050EA010404BF10BC41
:1005D000704749B1CCF1200421FA04F411FA0CF16E
:1005E00018BF012121430843A3EB0C01CB1D4FEAA7
:1005F00000614FEA102042BF002010BC704700EBA2
:10060000C35010440029A4BF10BC7047401C4900CF
:1006100008BF20F0010010BC704710B5141E73F124
:10062000000408DA401C41F1000192185B411A43B2
:1006300001D120F0010010BD2DE9F04D92469B46FE
:1006400011B1B1FA81F202E0B0FA80F220329046A4
:10065000FFF79DFF04460F4640EA0A0041EA0B01FE
:1006600053465A46084313D0114653EA010019D0A5
:10067000C8F140025046FFF7ECFD05460E465046D5
:1006800059464246FFF783FF084305D0012004E0A6
:1006900020463946BDE8F08D0020054346EAE07665
:1006A0002C4337430A986305E40AA0EB08000022B4
:1006B000FD0A44EA47540A3002D500200146E9E722
:1006C000010510196941DDE9084500196941BDE8D6
:1006D000F04DA2E72DE9FE4F804681EA0300C00FEE
:1006E0000C46009021F0004123F00045B8EB0200D9
:1006F000A94105D24046214690461C460B4602467B
:1007000023F00040104347D0270DC7F30A00C3F37E
:100710000A510290401A019040286BDAC3F313008B
:1007200040F4801B0098924620B10023D2EB030ACC
:1007300063EB0B0B01985946C0F140025046FFF79E
:1007400026FF06460D4650465946019A00F094F899
:1007500010EB08006141002487EA115284EAE77334
:100760001A4340D0009A62B3019A012A4FEA075215
:1007700015DC001B61EB02014FF0004202EA075258
:10078000CDE90042001C41F5801132462B46FFF7AF
:1007900053FF03B0BDE8F08F40462146F9E7001B48
:1007A00061EB0201001C41F5801300185B41201829
:1007B000A2F5001747EB030140EAD570B6196D4169
:1007C00011E06D084FEA360645EAC0754FEA075258
:1007D000001B61EB0201001C41F5801149084FEA42
:1007E00030000019514132462B4603B0BDE8F04FAE
:1007F000FFF713BF0098012240000023D0EB020254
:1008000063EBE073009821464FEAE074B8EB000018
:1008100061EB0401E9E783F000435BE781F000410D
:1008200058E7000030B5041E71F1000404DB4FF0FE
:100830000044404264EB0101141E73F1000405DB27
:100840001C464FF00043524263EB0403994208BF39
:10085000904230BD064C074D06E0E06840F00103D1
:1008600094E8070098471034AC42F6D3FFF742FCF7
:10087000E8A0000808A10008202A06DBCB17203AD0
:1008800041FA02F043EAE07306E041FA02F3D04095
:10089000C2F12002914008431946704770B58C1888
:1008A00010F8015B15F0070301D110F8013B2A1184
:1008B00006D110F8012B03E010F8016B01F8016B71
:1008C0005B1EF9D12B0705D40023521E0DD401F86D
:1008D000013BFAE710F8013BCB1A921C03E013F836
:1008E000015B01F8015B521EF9D5A142D8D300206B
:1008F00070BD70B5044620688168C943C9071BD123
:10090000816821F00101816000F082FD05460EE062
:1009100000F07EFD401B022809D9A06A40F01000BB
:10092000A062E06A40F00100E062012070BD206832
:100930008068C043C007EBD0002070BDF8B5044606
:100940000026009620688168C943C9072AD08168BB
:1009500041F001018160144814490068B0FBF1F0D6
:10096000009002E00098401E009000980028F9D105
:1009700000F04EFD054610E000F04AFD401B022845
:100980000BD9A06A40F01000A062E06A40F00100BC
:10099000E06284F824600120F8BD20688068C043CC
:1009A000C007E9D10020F8BD2800002040420F0018
:1009B00001F074BD70B504460E46154608E02046A9
:1009C000641CA4B200F007F806F8010B6D1EADB26E
:1009D000002DF4D170BD10B5044601F0FDFD200AD4
:1009E000A02101EB4000C0B201F0D4FD01F01CFEDB
:1009F000E0B201F0CFFD01F017FE01F0EDFDA12006
:100A000001F0C8FD01F010FE002001F07BFD04465E
:100A100001F0F6FD204610BD1FB5022000908003B6
:100A20000290684600F0F2FD0A4809490160002181
:100A300041608160C16001220261416181614FF4C6
:100A40006021C16100F018FA024800F01BF91FBDD7
:100A500000240140F00B002030B587B0182101A818
:100A6000FFF720FC042000900023314A0A2131A026
:100A700002F0ACF9044634B1214631A000F092F8FE
:100A8000204607B030BD354801904FF4C060049057
:100A900033A005900820ADF80800254801A9001DE5
:100AA00002F01AFB04462CB1214630A000F07AF87F
:100AB0002046E6E71E4D4FF4FA70083D02462988AD
:100AC00003F0ACF904462CB121462FA000F06AF8DF
:100AD0002046D6E7FA226988104603F09FF90446BB
:100AE0002CB1214628A000F05DF82046C9E74FF45C
:100AF0009672A98841F2883003F090F904462CB12F
:100B0000214621A000F04EF82046BAE74FF47A7251
:100B1000E9884FF4165003F081F904462CB12146C0
:100B200019A000F03FF82046ABE70020A9E700003D
:100B3000140000204D736751756575650000000055
:100B4000637265617465207468652071756575658B
:100B5000206572726F723A25780D0A00C93B000851
:100B6000526563765461736B0000000063726561C7
:100B70007465207461736B5F726376206572726F47
:100B8000723A25780D0A00006372656174652074FD
:100B9000696D6572206572726F723A25780D0A0070
:100BA000FEE770470FB47CB5164C2078002500286E
:100BB0000CD1201D01F09AFF012020700023009528
:100BC0001A464FF4E131019503F01AFB0A216068DF
:100BD00001F0D2FF002812D107AA0B48069906F0AF
:100BE000E9F9024601954FF40070824200D90246AD
:100BF0000549012003F030FB606802F075F87CBC09
:100C00005DF814FB00010020EC090020012000F039
:100C1000EBBA10B54FF4807000F0E6FABDE8104072
:100C20004FF4007000F0E0BA704700000EB500907D
:100C300001200190072002906946074800F094F8CF
:100C4000054800F067FA0A21034800F0C5F9024898
:100C500000F00EF980B20EBDF00B00202DE9F0413E
:100C600007460E460025002405E03846FFF7DEFF64
:100C70000544641CE4B2B442F7D3B5FBF6F080B28D
:100C8000BDE8F081F8B504460026009694F82400EB
:100C9000012809D0012084F824002046FFF729FE0E
:100CA0000746380002D058E00220F8BDA06A20F4C0
:100CB000885040F00200A062022000F03FFC294969
:100CC0000968B1FBF0F04000009002E00098401E7F
:100CD000009000980028F9D12046FFF72FFE2068E9
:100CE000816841F00801816000F092FB05460EE04A
:100CF00000F08EFB401B0A2809D9A06A20F00200F0
:100D000040F01000A06284F824600120F8BD206843
:100D100080680007ECD42068816841F0040181609C
:100D200000F076FB05460EE000F072FB401B0A283F
:100D300009D9A06A20F0020040F01000A06284F8F7
:100D400024600120F8BD206880684007ECD4A06AC8
:100D500020F0020040F00100A06284F824603846D0
:100D6000F8BD000028000020F8B5002300250095FC
:100D700090F82420012A12D0012280F824204A6809
:100D80001F26072A0DD20468676B521E02EB8202EF
:100D90009640B7430E689640374367631AE00220D7
:100DA000F8BD0D2A0BD20468276BD21F02EB82021A
:100DB0009640B7430E689640374327630AE00468BD
:100DC000E76A0D3A02EB82029640B7430E689640FE
:100DD0003743E7620A6807260A2A0BD30468E768E4
:100DE0000A3A02EB42029640B7438E689640374378
:100DF000E76009E00468276902EB42029640B743C6
:100E00008E689640374327610A68102A01D0112A5C
:100E100023D1144C0268A2421AD1946824021CD433
:100E2000946844F4000494600968102915D10E49AF
:100E30000E4A0968B1FBF2F101EB81014900009112
:100E400002E00099491E009100990029F9D104E0BF
:100E5000816A41F020018162012380F82450184604
:100E6000F8BD0000002401402800002040420F008F
:100E70000068C06C704700002DE9F041044600276F
:100E80000025002C03D0A06A002618B108E001203C
:100E9000BDE8F081E66284F82460204600F078F82E
:100EA0002046FFF726FDA16AC90600D428B1A06A32
:100EB00040F01000A0620120EAE7A16A21F4885105
:100EC00041F00201A1626268E169E3680A4347EA0E
:100ED00043010A43A1684FF48077B94208D0012941
:100EE00006D00021D4F814C0BCF1010F02D00AE0F2
:100EF0003946F7E7F3B1A36A43F02003A362E36A3C
:100F000043F00103E3622368D3F804C02CF4694C76
:100F10004CEA010CC3F804C021688B68DFF868C094
:100F200003EA0C0313438B60A168B94209D001297D
:100F300007D009E0A3695B1E41EA433141F4006137
:100F4000E1E7218A491E0D052168CB6A23F470036D
:100F50002B43CB62216889680C4B1940914207D121
:100F6000E662A16A21F0020141F00101A1628FE76E
:100F7000A06A20F0020040F01000A062E06A40F099
:100F80000100E062012083E7FDF7E1FFFE0E1FFF95
:100F900000B585B00E48816941F4007181618169B5
:100FA00001F400710091816941F00801816180695B
:100FB00000F0080000900220019003200290002021
:100FC000039001A9034800F01BF905B000BD000023
:100FD00000100240000C01402DE9F84304460D4684
:100FE0000027009700F014FA064620688168C905BA
:100FF00008D5A06A40F02000A06284F82470012087
:10100000BDE8F8834168C90503D4C06A10F4700FC5
:101010002DD0022000F092FA3B490968B1FBF0F8AC
:1010200020680169394A11424FEA62024FEAA2136D
:1010300022D1C1684FEA621C11EA0C0F1CD1016970
:10104000114228D1C068184225D1142026E0681C1E
:101050000DD025B100F0DCF9801BA84207D9A06AA9
:1010600040F00400A06284F824700320C8E72068E0
:1010700000688007EBD52AE00169114202D1C168FE
:10108000194206D0026922490A4206D1C0680842C4
:1010900003D1542002E0292000E0FC2008FB00F8E6
:1010A00012E0681C0DD025B100F0B2F9801BA842F7
:1010B00007D9A06A40F00400A06284F824700320DD
:1010C0009EE70098401C009000984045E9D32168B5
:1010D0006FF012000860A06A40F40070A0622068FF
:1010E0008068C0F3424007280CD1E06850B9A06A7C
:1010F00020F48070A062A06AC00403D4A06A40F00B
:101100000100A06200207BE72800002024499224EF
:101110004992240070B5044694F8240001280CD0AC
:10112000012084F824002046FFF708FC0146002235
:1011300029B184F82420084670BD022070BDA06A41
:1011400040F20123984340F48070A062234D206850
:10115000234BA84218D11E6816F4702F14D0A66A2B
:1011600046F48016A6621E68760505D5A66A26F4A2
:10117000005646F48056A662A66AF60412D5E66AC0
:1011800026F00606E6620EE0A66A26F48016A6623F
:1011900046687605F0D5A66A26F4005646F48056D1
:1011A000A662E9E7E26284F824206FF0020202609E
:1011B00020688268C2F34242072A05D1A84208D1BA
:1011C0001A6812F4702F04D0826842F48012826090
:1011D000B1E7826842F4A0028260ACE700280140D7
:1011E000042401407047000010B504490A68024217
:1011F00002D00860FFF7F6FF10BD000014040140A4
:101200002DE9F84F00230024DFF8C0914FF00F08BC
:1012100009F1040A0AF1040B0BF1040E0127A7409F
:101220000A683A40BA4275D1DFF8A4C14D68A5EB0F
:101230000C0665452BD00DDC032D34D005DC35B311
:10124000012D19D0022D2FD11BE0112D16D0122DFA
:101250002AD119E0B6F5881F19D006DCB6F5803F13
:1012600015D0B6F5801F1FD111E0B6F5001F0ED0C6
:10127000B6F5041F18D10AE0CB6815E0CB681B1D3A
:1012800012E0CB6808330FE0CB680C330CE08B68BE
:1012900023B1012B04D00823476105E0042303E0B8
:1012A0000823076100E00023FF2A01D8054601E07A
:1012B00000F1040502D84FEA840603E0A4F1080611
:1012C0004FEA86062F6808FA06FC27EA0C0703FA9D
:1012D00006F647EA06072F604D68ED0070D53D4DD4
:1012E000AE6946F00106AE61AD6905F001050095F5
:1012F000394D24F003067719BE68A5072D0F08FAAB
:1013000005FC26EA0C06DFF8D4C0604503D14FF097
:10131000000C17E054E0DFF8C8C0604502D14FF080
:10132000010C0FE0DFF8BCC0604502D14FF0020CA9
:1013300008E0DFF8B4C0604502D14FF0030C01E0D3
:101340004FF0040C0CFA05FC4CEA060CC7F808C078
:101350004D68ED0305D5D9F800501543C9F8005084
:1013600004E0D9F800509543C9F800504D68AD032A
:1013700005D5DAF800501543CAF8005004E0DAF851
:1013800000509543CAF800504D68ED0205D5DBF8D2
:1013900000501543CBF8005004E0DBF800509543B3
:1013A000CBF800504D68AD0205D5DEF8005015436E
:1013B000CEF8005004E0DEF800509543CEF800501F
:1013C000641C102CFFF42AAFBDE8F88F0004014024
:1013D0000000111000100240000001400008014010
:1013E000000C0140001001400014014080680842D8
:1013F00001D00120704700207047C2684A40C26097
:101400007047002A01D001617047090401617047EB
:1014100001488068704700001C00002010B5074894
:10142000016841F010010160032000F075F8002010
:1014300000F006F800F026F8002010BD0020024061
:1014400070B504460D4D4FF47A712878B1FBF0F079
:101450000B490968B1FBF0F000F028FC08B101204D
:1014600070BD102C07D200222146501E00F034F827
:101470006C60002070BD012070BD00001C000020C9
:101480002800002008B50C48816941F00101816104
:10149000816901F001010091C16941F08051C16190
:1014A000C06900F0805000900449486820F0E06076
:1014B00040F08060486008BD00100240000001401C
:1014C00000F01F02012191404009800000F1E0205E
:1014D000C0F8001170470000F0B40D460D4B1B68BA
:1014E000C3F30223C3F10704042C00D90424191DFB
:1014F000072901D2002300E0DB1E012606FA04F1D1
:10150000491E294099409E40761E16403143F0BC4A
:1015100002F084B80CED00E000F00701054A106805
:101520004FF6FF03184040EA0120034908431060CA
:10153000704700000CED00E00000FA0510B586B021
:1015400001462AA090E81C00C068CDE9033402924D
:1015500005902AA0006801900020294C012922D082
:10156000022939D010291CD161682268D20118D50E
:1015700002A8C1F38342805CC90309D5616801AA4E
:10158000C1F34041515C1F4AB2FBF1F1484301E015
:101590001D4948436168490203D440000321B0FB60
:1015A000F1F006B010BD216AC1F30122012A03D176
:1015B000890701D5D003F4E7022A05D1616A8907BA
:1015C00002D549F64040ECE7032AEAD121688903B5
:1015D000E7D54FF22440E4E700F072F96168C1F307
:1015E0008131491C4900B0FBF1F0DAE70203040540
:1015F000060708090A0B0C0D0E0F1010010200005F
:101600000010024000127A0000093D002DE9F84365
:101610000446DFF8F8802078C0075FD00027D8F8AC
:101620001C00C0000BD4D8F81C0040F08050C8F853
:101630001C00D8F81C0000F0805000900127344DA9
:101640002868C00512D4286840F480702860FFF72D
:10165000DFFE064607E0FFF7DBFE801B642802D9A9
:101660000320BDE8F8832868C005F4D5D8F8200029
:1016700000F4407010B3A18801F4407181421DD084
:10168000D8F8200020F44070224901220A6000228C
:101690000A60C8F82000C00710D0FFF7B9FE054661
:1016A00041F2883606E0FFF7B3FE401BB04201D995
:1016B0000320D6E7D8F820008007F4D5D8F820001A
:1016C000616820F440700843C8F82000012F05D15C
:1016D000D8F81C0020F08050C8F81C002078800743
:1016E00007D5D8F80400A16820F440400843C8F8A2
:1016F00004002078C00607D5D8F80400E16820F47B
:1017000080000843C8F804000020AAE70010024047
:1017100000700040400442422DE9F04704460E4666
:10172000DFF86081D8F8000000F00700B0420FD267
:10173000D8F8000020F007003043C8F80000D8F8BF
:10174000000000F00700B04202D00120BDE8F087A1
:1017500020684D4F810712D5400703D5786840F4C3
:10176000E06078602078000703D5786840F4605026
:1017700078607868A16820F0F000084378602078ED
:10178000C00748D06068012806D0022809D039680F
:1017900089070BD40120D9E73968890306D40120D1
:1017A000D4E73968890101D40120CFE7796821F0B5
:1017B000030101437960FFF72BFE0546606841F2A3
:1017C0008839012809D0022814D020E0FFF720FE34
:1017D000401B484501D90320B8E77868C0F3810071
:1017E0000128F3D117E0FFF713FE401B484501D94C
:1017F0000320ABE77868C0F381000228F3D10AE048
:10180000FFF706FE401B484501D903209EE7786894
:1018100010F00C0FF4D1D8F8000000F00700B0422F
:101820000ED9D8F8000020F007003043C8F80000B7
:10183000D8F8000000F00700B04201D0012085E791
:101840002078400705D57868E16820F4E060084317
:1018500078602078000706D57868216920F4605008
:1018600040EAC100786000F03BF87968074AC1F3AC
:101870000311515CC840064908600020FFF7E0FDF5
:10188000002063E70020024000100240E09A0008B8
:101890002800002001480068704700002800002050
:1018A00000B5FFF7F7FF04494968044AC1F3022174
:1018B000515CC84000BD000000100240F09A0008D2
:1018C00000B5FFF7E7FF04494968044AC1F3C221A4
:1018D000515CC84000BD000000100240F09A0008B2
:1018E00085B014A090E80E00C068CDE902230191F4
:1018F000049014A000680090134B5968134801F03D
:101900000C02042A10D0082A0ED101A8C1F3834288
:10191000805CC9030AD55968C1F340411DF8011024
:101920000A4A5043B0FBF1F005B0704708494843FC
:10193000FAE7000002030405060708090A0B0C0D6C
:101940000E0F1010010200000010024000127A0079
:1019500000093D002DE9F84F0446D04D2078C0071E
:101960005BD06868C0F38100012807D06868C0F3C5
:10197000810002280AD16868C00307D5286880035F
:101980004BD5606878BB0120BDE8F88F6068B0F582
:10199000803F11D0A8B1B0F5A02F1BD0286820F44B
:1019A00080302860286820F480202860606830B388
:1019B000FFF72EFD06461EE0286840F480302860C0
:1019C000F4E7286820F480302860286820F480201C
:1019D0002860EBE7286840F480202860286840F4FD
:1019E00080302860E2E718E0FFF712FD801B6428D2
:1019F00001D90320C8E728688003F5D50DE0FFF77B
:101A000007FD064606E0FFF703FD801B642801D9A9
:101A10000320B9E728688003F5D42078DFF88082B6
:101A200080074FF0010A4FF0000945D5686810F0B3
:101A30000C0F07D06868C0F38100022812D16868D3
:101A4000C0030FD42868800704D52069012801D07D
:101A5000012099E72868616920F0F80040EAC10098
:101A6000286029E02069B8B1C8F800A0FFF7D0FCD1
:101A7000064606E0FFF7CCFC801B022801D90320B4
:101A800082E728688007F5D52868616920F0F800AA
:101A900040EAC10028600FE0C8F80090FFF7B8FCEA
:101AA000064606E0FFF7B4FC801B022801D903209C
:101AB0006AE728688007F5D42078000726D579489A
:101AC000A16999B1C0F800A0FFF7A2FC064606E0A4
:101AD000FFF79EFC801B022801D9032054E7686AA7
:101AE0008007F5D5012001F079FF0FE0C0F80090E4
:101AF000FFF78EFC064606E0FFF78AFC801B0228F3
:101B000001D9032040E7686A8007F5D420784007B0
:101B100073D50026E869C00008D4E86940F0805019
:101B2000E861E86900F0805000900126DFF878B1A4
:101B3000DBF80000C00514D4DBF8000040F480702E
:101B4000CBF80000FFF764FC074606E0FFF760FCF7
:101B5000C01B642801D9032016E7DBF80000C0058C
:101B6000F4D5E068012812D0B0B105281DD0286A4C
:101B700020F001002862286A20F004002862E06852
:101B800041F2883B28B3FFF743FC07461DE0286A73
:101B900040F001002862F2E7286A20F00100286284
:101BA000286A20F004002862E9E7286A40F004006F
:101BB0002862286A40F001002862E0E7FFF728FC6D
:101BC000C01B584501D90320DEE6286A8007F5D5F9
:101BD0000DE0FFF71DFC074606E0FFF719FCC01BF0
:101BE000584501D90320CFE6286A8007F5D4012E95
:101BF00003D1E86920F08050E861E069A0B369682A
:101C0000C1F38101022947D0022805D0C8F86090AD
:101C1000FFF7FEFB04463AE0C8F86090FFF7F8FBD8
:101C2000064606E0FFF7F4FB801B022801D90320DB
:101C3000AAE628688001F5D4206AB0F5803F05D176
:101C40006868A16820F4003008436860D4E908019E
:101C50000843696821F4741108436860C8F860A0FB
:101C6000FFF7D6FB044607E014E0FFF7D1FB001BAB
:101C7000022801D9032087E628688001F5D509E00C
:101C8000FFF7C6FB001B022801D903207CE6286869
:101C90008001F5D4002077E6012075E600100240AF
:101CA00000004242800442420070004010B5401ED5
:101CB000B0F1807F01D3012010BD4FF0E0246061BE
:101CC0000F21601701F0AAFC0020A061072020610D
:101CD000002010BD10B50446002C03D094F83D0040
:101CE00010B107E0012010BD002084F83C00204620
:101CF00000F00CF8022084F83D00211D206801F05E
:101D00002DFF012084F83D00002010BD08B50068BB
:101D10000649884208D10648C16941F00201C16103
:101D2000C06900F00200009008BD000000040040FF
:101D3000001002400168CA6842F00102CA600068EF
:101D4000016841F0010101600020704770B5044650
:101D5000002C04D094F83900002510B106E00120D1
:101D600070BD84F83850204600F022F8242084F812
:101D700039002068C16821F40051C160204602F09A
:101D80007DF82068016921F4904101612068416972
:101D900021F02A0141612068C16841F40051C1600D
:101DA000E563202084F8390084F83A00002070BDF3
:101DB00030B585B000240194029403940494006823
:101DC000184988422CD11848816941F480418161C9
:101DD000816901F480410091816941F004018161D0
:101DE000806900F0040000904FF400700190022020
:101DF0000290032004900D4D01A92846FFF700FA38
:101E0000291501910294039401A92846FFF7F8F9D6
:101E1000002211462520FFF75FFB2520FFF750FB2E
:101E200005B030BD003801400010024000080140FC
:101E30002DE9F84304460D4691461E4694F83A00B3
:101E4000202802D00220BDE8F883B5B1B9F1000F17
:101E500013D094F83800012811D0012084F83800FC
:101E60000027E763222084F83A00FFF7D1FA804682
:101E7000A4F82C90A4F82E9035E00120E3E702208E
:101E8000E1E7E08D401EE085A068B0F5805F09D0F5
:101E90004346002220212046009602F0BDF8D0B132
:101EA0000320D0E74346002220212046009602F07E
:101EB000B3F808B10320C6E7206928B1206840685C
:101EC000C1B229806D1C0EE020684068C0F3080193
:101ED0002980AD1C07E0206970B12068406800F0DF
:101EE0007F0005F8010BE08D0028CAD1202038348E
:101EF000A07027700020A6E72068406805F8010B55
:101F0000F1E72DE9F84304460D4691461E4694F844
:101F10003900202802D00220BDE8F883B5B1B9F11C
:101F2000000F13D094F83800012811D0012084F854
:101F300038000027E763212084F83900FFF768FAAA
:101F40008046A4F82490A4F826902DE00120E3E731
:101F50000220E1E7E08C401EE084A068B0F5805FDD
:101F600009D04346002280212046009602F054F812
:101F7000B0B10320D0E743460022802120460096DE
:101F800002F04AF808B10320C6E728882168C0F3A8
:101F900008004860206908B16D1C05E0AD1C03E035
:101FA000216815F8010B4860E08C0028D2D1434627
:101FB000002240212046009602F02EF808B10320AE
:101FC000AAE720203834607027700020A4E70000C2
:101FD0002DE9F0470F25DFF870804FF0000A1B4F06
:101FE000DFF86C9022E00120C8F884010A2001F09B
:101FF00063F918A007F0AAFA00240A2001F05CF99E
:102000003888000403D4641CE4B2142CF5D3C8F857
:1020100084A13888000409D53888C6B2A7F800A082
:102020000D2E03D199F800002B2804D06D1EEDB2BF
:10203000D9D22DB105E099F806003038C6B2F8E7DC
:10204000FF263046BDE8F087000021420004002052
:102050004810002041542B524F4C453F0D0A0000C0
:102060002DE9F04786B00A2501263448816941F000
:1020700004018161806900F0040001901020029049
:102080004FF00008CDF80C804FF00109CDF810900A
:10209000032405942A4F02A93846FFF7B1F802201D
:1020A0000290CDF80C90CDF81090059402A9384616
:1020B000FFF7A6F8012202213846FFF7A2F94FF4F4
:1020C000165002F035F81FA0FEF76CFD224FDFF826
:1020D0008CA026E0224CC4F88491142001F0ECF886
:1020E00020A007F033FAC4F8848100243888000463
:1020F00006D4052001F0E0F8641CE4B20A2CF5D304
:10210000388800040DD53888C6B2A7F80080042EA0
:1021100007D19AF800004F2803D19AF801004B2804
:1021200004D06D1EEDB2D5D215B102E00026FBE75A
:10213000012606B03046BDE8F087000000100240DE
:1021400000080140544553542054455354205445ED
:1021500053540D0A00000000000400204810002025
:102160000000214241540D0A0000000010B5FFF7A5
:102170002FFF012804D0BDE8104004A0FEF712BDD7
:10218000BDE8104005A0FEF70DBD0000524F4C45C4
:102190003A536C6176650D0A00000000524F4C45C1
:1021A0003A4D61737465720D0A0000002DE9F04725
:1021B00081460F254FF00008184F23E0184C0120EE
:1021C0002060142001F078F8494616A007F0BEF907
:1021D000C4F8008000243888000406D4052001F0EB
:1021E0006BF8641CE4B2142CF5D33888000409D5CC
:1021F0003888C6B2A7F80080042E03D10B480078B7
:102200004F2804D06D1EEDB2D8D215B102E00026E1
:10221000FBE7FF263046BDE8F08700000004002001
:102220008401214225730D0A00000000481000209F
:102230000A4802680A49002A087806D001280BD00B
:102240000120087007A0FEF7ADBC002804D00020D4
:10225000087008A0FEF7A6BC7047000010012142DC
:10226000FE0300205354413A436F6E6E65637465FC
:10227000640D0A005354413A446973636F6E6E658E
:1022800063740D0A0000000086B0002500260024BB
:1022900000F0F2F9FFF7E4FE42A0FEF783FC47A04E
:1022A000FEF780FCDFF830814FF0010AC8F884A106
:1022B0004AA0FEF777FC4EA0FEF774FCFFF756FF2E
:1022C000DFF84C910027002000F016FA042807D010
:1022D00001281ED00A2000F0EFFF322D1ED039E079
:1022E000FFF776FEFF28F8D068B1002068B149A05A
:1022F000FFF75CFFFFF73AFF49A0FFF757FFC82041
:1023000000F0DAFFE9E70120F0E748A0FFF74EFF11
:10231000F0E70EB10026E0E70126DEE78EB12246A7
:1023200045A101A8FEF73EFC01A948A0FEF73AFC32
:10233000214641A007F00AF9641CE4B2632C00D9DD
:102340000024FFF775FF0025D8F8800180B1002038
:10235000C8F88001B9F8000000041FD5B9F80000E2
:10236000C0B23B490F54092804D0082802D00FE01E
:102370000120EDE737A13648FDF7A6FF08B9C8F8F8
:10238000847137A13248FDF79FFF08B9C8F884A1CE
:102390002F4936A0FEF706FCA9F800706D1CEDB2BF
:1023A00091E70000414C49454E54454B204E414E6B
:1023B0004F2053544D33320D0A000000484330354E
:1023C00020424C5545544F4F544820434F4D2054C4
:1023D0004553540D0A0000000000224241544B2D89
:1023E00048433035205374616E6462790D0A0000F1
:1023F0000D0A4B45595F55503A524F4C4520204BE2
:102400004559303A53454E442F53544F500D0A000E
:102410000004002041542B524F4C453D3100000038
:1024200041542B52455345540000000041542B5257
:102430004F4C453D30000000414C49454E54454B02
:1024400020484330352025640D0A00002573000024
:10245000481000202B4C454431204F4E0000000016
:102460002B4C454431204F464600000025730D0A91
:1024700000000000FEE7000070B5074C4025256015
:1024800000F07AF88020206000F0F0F8201F05604E
:1024900000F0ECF8256070BD140C014000B585B06B
:1024A0000D48816941F008018161806900F00800F0
:1024B0000090C0200190012002900390032004901E
:1024C00001A90648FEF79CFE0448802110300160F7
:1024D0004021016005B000BD00100240000C014029
:1024E00070B5074D40242C6000F046F82A1F80206C
:1024F000106000F0BBF8146000F0B8F82C6070BDFC
:10250000140C01402DE9F0410646002400F026F8A5
:102510000022114DDFF8408040232F1FA8F10C0846
:102520002B6000F0A3F83B606006040ED8F80000B2
:10253000000601D5641CE4B200F098F8521CD2B237
:10254000082AEDD326B1FFF797FF2046BDE8F081BA
:10255000FFF7C6FFF9E70000140C01401FB580200B
:102560000090002001900120029069460148FEF78A
:1025700047FE1FBD000C01401FB5802000900120C8
:1025800001900320039069460148FEF739FE1FBD04
:10259000000C01402DE9F0410446FFF7EDFF0D4D21
:1025A00040232B60002280262F1FE00908B13E60E7
:1025B00000E02E606006040E00F058F83B6000F06A
:1025C00055F82B6000F052F8521CD2B2082AECD316
:1025D000BDE8F081140C014010B5FFF7CDFF0748AE
:1025E000802202604023036000F040F8034C241D69
:1025F000226000F03BF8236010BD0000100C014089
:1026000010B5FFF7B9FF074840230360802202603E
:1026100000F02CF80348001F03600260BDE8104082
:1026200000F024B8140C014010B50024FFF796FF09
:102630000D4A8020106000F019F84023136000F06C
:1026400015F80948083807E0641CE4B2FA2C03D9ED
:10265000FFF7D6FF012010BD01680906F4D4024837
:10266000001D0360002010BD100C01400220401E20
:10267000C0B2FCD27047000070B586B01A488169BC
:1026800041F004018161816901F0040101918169D6
:1026900041F010018161816901F0100101918169AE
:1026A00041F020018161806900F020000190012447
:1026B000029400260396022004900325059502A9A2
:1026C0000A48FEF79DFD28020290039604940595A2
:1026D00002A90748FEF794FD0420029002A90548CC
:1026E000FEF78EFD06B070BD0010024000080140EC
:1026F00000100140001401402DE9F0470126314C43
:10270000002800D026702078DFF8BC90DFF8BCA04D
:102710002F4D4FF480774FF40078A0B1394628460A
:10272000FEF764FEB0B141462846FEF75FFE88B171
:1027300004214846FEF75AFE60B101215046FEF7DB
:1027400055FE012806D039462846FEF74FFE0128DF
:1027500024D035E00A2005F007F900202070394622
:102760002846FEF743FE80B141462846FEF73EFE6E
:1027700070B104214846FEF739FE58B10121504698
:10278000FEF734FE012807D01AE00120BDE8F087EB
:102790000220FBE70320F9E70420F7E7414628463B
:1027A000FEF724FE01280BD104214846FEF71EFE49
:1027B000012805D101215046FEF718FE00B9267008
:1027C0000020E3E7FC000020001401400008014065
:1027D000001001404218521E491E824202D922EACC
:1027E0000100704788437047F8B50E46069D074CB8
:1027F0002468002C02D031460095A0470448864248
:1028000001D00020F8BD0020F8BD0000E00000204D
:10281000F8C3B2A110B505F0A5FF2349214808600F
:1028200005F074FD044644B120A0FEF7BBF9214633
:1028300020A0FEF7B7F9204610BD06F0D7FA0446EF
:102840003CB11AA0FEF7AEF921A0FEF7ABF9204685
:1028500010BD06F03BFB05F08DFF0028F8D105F018
:102860005FFD0028F4D105F06BFE04463CB10FA0DB
:10287000FEF798F91BA0FEF795F9204610BD06F06B
:1028800091F804463CB109A0FEF78CF91AA0FEF7B6
:1028900089F9204610BD06F013FD05F011FD002852
:1028A000F8D110BDD81500202C0000205B455252F5
:1028B0005D2000006F734D656D53797374656D49CC
:1028C0006E6974206572726F722025640A000000C0
:1028D0006F735461736B496E6974206572726F72A5
:1028E0000A0000006F735175657565496E69742043
:1028F0006572726F720A00006F735377546D72497C
:102900006E6974206572726F720A000042684A60D4
:102910000860426811604160704742684A60086020
:10292000426811604160704742684A6008604268CE
:1029300011604160704742684A60086042681160F7
:1029400041607047D0E900121160D0E90021516068
:1029500000214160016070474168814201D101203E
:102960007047002070474168814201D101207047C3
:10297000002070474168814201D10120704700204A
:1029800070474168814201D10120704700207047A3
:102990000068FFF7BBBF70B504460D460020002C51
:1029A0000DD0002D0BD02946204605F066FF0028EB
:1029B00005D129462046BDE8704005F0FBBA70BD40
:1029C00005F084BB70B505460C46002D0ED06CB1E9
:1029D0002146284605F08BFF012803D021462846D2
:1029E00005F094FB012803D0012070BD012070BDCB
:1029F000002070BD2DE9F84F05468846DFF8B0A0ED
:102A0000DAF800402746002D02D0B8F1500F02D866
:102A10000120BDE8F88FA80701D00120F9E7FDF7F4
:102A2000A5FB814605EB08061CE0A0682044A542F2
:102A300001D8A64203D8854212D2864210D31DA0E7
:102A4000FEF7B0F8A068324620440090234629469D
:102A50001AA0FEF7A7F84846FDF790FB0120D8E73B
:102A60002746E468002CE0D14146284605F0D4FB17
:102A700088B1B8F5805F03D3284605F068FF78B1C8
:102A8000DAF8000088B1FD600020E8604846FDF7F4
:102A900075FB0020BDE74846FDF770FB0120B8E755
:102AA0004846FDF76BFB0120B3E7CAF80050EBE79F
:102AB000F40000205B4552525D200000706F6F6C87
:102AC000205B25702C20307825782920636F6E6676
:102AD0006C696374207769746820706F6F6C205B19
:102AE00025702C2030782578290A0000F8B5054695
:102AF000002D14D0FDF73AFB06461748FFF73AFFC2
:102B0000002478B13046FDF739FB144D14490023F9
:102B10002A4614A00094FFF767FE2846F8BD0F4828
:102B2000401EF8BD0C484068D0E9001211604168B1
:102B300050F80829516044800121017084820461A9
:102B400000F1080149600960406828603046FDF7DF
:102B500015FB0020F8BD0000C0000020031D00028E
:102B6000F8C3B2A16F735F756E7370656369666950
:102B7000635F66696C6500002DE9F84388460026AE
:102B8000444D454F0F2809D300232A46394643A018
:102B90000096FFF729FE2846BDE8F883444900EB7C
:102BA0004000096801EBC004FDF7E0FA8146207897
:102BB00040B105F0A7FB88B14846FDF7DFFA35487C
:102BC000001DE9E74846FDF7D9FA00232A463946B1
:102BD00032A00096FFF708FE2846DDE73548056875
:102BE000608848B12169A94210D1401C60804846E4
:102BF000FDF7C4FA0020CFE7012060802561E88856
:102C0000A0824846FDF7BAFA0020C5E7B8F1000FE8
:102C10000ED02948008888B11E4C641D27A0FDF7FE
:102C2000C1FF28A0FDF7BEFF4846FDF7A7FA25E043
:102C30004846FDF7A3FA1748C01CADE7EC612069D0
:102C4000E988C2888A4201D906F056F9424608212D
:102C500004F1080006F066FA4846FDF78FFA00F026
:102C600043F92879400612D5FDF780FAA98821F0AA
:102C70004001A980FDF782FA064CA41D00232246DC
:102C8000394606A00096FFF7AFFD204684E70020F6
:102C900082E70000011D0002F8C3B2A16F735F75E7
:102CA0006E73706563696669635F66696C65000071
:102CB000BC00002074000020540000205B455252EC
:102CC0005D2000002121214C4F535F4552524E4F51
:102CD0005F4D55585F50454E445F494E5F4C4F43E2
:102CE0004B2121210A0000002DE9F84306462E4918
:102CF00006EB4600096801EBC004FDF737FA05460C
:102D00000027DFF8A880DFF8A8900F2E15D22078D2
:102D100098B128480168628812B12069884218D0A9
:102D20002846FDF72BFA00234246494622A0009789
:102D3000FFF75AFD4046BDE8F8832846FDF71EFA26
:102D40000023424649461CA00097FFF74DFD404630
:102D5000F1E7521E1104090C618004D02846FDF7EA
:102D60000DFA0020E7E7C288A18A8A4201D006F066
:102D7000C3F804F10800FFF7FDFD20B12846FDF778
:102D8000FDF90020D7E7E068283801216180206143
:102D9000C188A182C761082106F0EAF92846FDF73B
:102DA000EDF900F0A1F8ECE7BC000020011D0002E5
:102DB000F8C3B2A1740000206F735F756E73706505
:102DC00063696669635F66696C6500002DE9F047B9
:102DD0000D4608989046011D8FB2B8F1000F06D03D
:102DE0004FF6FB71884205D92648BDE8F087254893
:102DF0000930FAE7D5B1C8B1234C05FB07F12068CB
:102E0000FFF7C9FD0646300013D0FDF7AFF9814644
:102E10001E48FFF7B6FD78B14846FDF7AFF93146D9
:102E20002068FFF7CFFD1748401CDEE715480A3041
:102E3000DBE71448401ED8E714484468D4E9000191
:102E40000860D4E90010486000201C3CE580278120
:102E500026600121A18020826582A081E08104F1A9
:102E6000140149600960083149600960083149600E
:102E700009604846FDF782F96089C8F80000002023
:102E8000B3E70000030600022C000020CC00002065
:102E9000F8B507460D4616461C46234632462946D7
:102EA000384605F02BFC002806D1002133462A467F
:102EB0003846009405F072FBF8BD7FB582B0064637
:102EC0000D461C46234604AA2946304605F030FC30
:102ED000002806D1032104AB2A463046009405F0B1
:102EE0005DFB06B070BD000010B5FDF73FF904466C
:102EF00005F0AAFA0A49283848600968814202D0D8
:102F00000848008820B12046BDE81040FDF736B9DA
:102F10002046FDF733F9BDE81040FDF732B9000057
:102F2000740000205400002010B506F057F9044644
:102F30003CB106A0FDF736FE06A0FDF733FE2046A5
:102F400010BDFDF7EFF8204610BD00005B45525262
:102F50005D2000006F735469636B53746172742059
:102F60006572726F720A00002DE9F05F8046DDE93C
:102F70000AB60C9F0D4691469A46B8F1000F07D04D
:102F80004DB1012D07D0022D05D01F48BDE8F09F9F
:102F90001D48401EFAE7B9F1000F08D0BAF1000F42
:102FA00008D056B1012E08D017480F30EEE716486A
:102FB000801EEBE71448401CE8E7012F03D017B14F
:102FC00011481030E2E7FDF7D1F810494C69B4B16F
:102FD00022684A61FDF7D2F8C4F818906571C4F808
:102FE000108000202060E060C4F814B0A671E77182
:102FF000012020712089AAF800000020C6E7FDF713
:10300000BDF80148801CC1E702030002380000201F
:103010002DE9F041064600254FF6F070DFF8AC8050
:10302000864202D34046BDE8F081FDF79FF807468F
:1030300006F00F002649C0EBC000096901EB8004CF
:103040002089B04204D03846FDF798F84046EAE7B8
:10305000E179012923D16179012920D11D4B00F0AB
:103060000F0153F8210040F0804043F8210022690D
:103070000A21B2FBF1F601FB162282B9227A40F056
:10308000005002F00F0243F822002269B2FBF1F176
:10309000227A61F3170002F00F0243F82200207930
:1030A00050B101280ED0022809D0084D0935384604
:1030B000FDF764F82846B6E7044D6D1CF7E7204697
:1030C00005F00CFE204605F0AFFCF0E7050300021A
:1030D000380000200404002070B50446204600F0AB
:1030E00035F8002829D1184D2068C0EBC000E968E8
:1030F00000EB400001EB8004FDF738F80646A0889D
:1031000020F0020040F00400A080E18804F12800D3
:1031100005F052F905F098F905F1200128384860CA
:10312000EA695AB12A884AB90968814206D030460C
:10313000FDF724F805F01CFB002070BD3046FDF7BC
:103140001DF8002070BD0000540000202DE9F0475C
:1031500007460D464FF0FF38002F0BD065B12869A8
:1031600060B1286860B1A988494A1F290AD9104668
:10317000BDE8F0874748FBE74748F9E74748F7E7E6
:103180004748F5E704D14749884201D01046EFE7A8
:103190004549464AE868511A884202D93D481930E3
:1031A000E6E710B94FF43470E8600821E868FFF7EB
:1031B00011FBE860B0F5987F02D23648401ED7E791
:1031C000FCF7D4FF81460026DFF8E4A010E0DAF82F
:1031D0000400A0F12804FFF7B5FB354804F12801ED
:1031E0000838FFF793FB3048E168FFF7EBFBE66038
:1031F0002F48FFF7B8FB0028E9D02D480838FFF723
:10320000B2FB10B1234C0A343CE02948083840682E
:10321000A0F12804FFF796FB4846FCF7AFFFD4F86F
:1032200010A008222048E968FFF7CAFB81465FEA40
:1032300009001DD04A465046E96806F049F820606A
:10324000A8682062C4F80C90E868A060A661E661F6
:103250000220A080A888E08028686061C4F83C80D3
:10326000A664286960622665C7F800A000207FE791
:10327000FCF77CFF81460E4804F128010838FFF76F
:1032800045FB0C4C4846FCF779FF204670E70000F0
:10329000030200020702000201020002050200020E
:1032A00004020002BD820008D81500200050002052
:1032B0008C0000200002000370B5064605F022F8DD
:1032C00008B1154870BD1548008808B1144870BD94
:1032D000EEB1FCF74BFF0546104C20342068283037
:1032E00005F04AF82068818821F004018180314688
:1032F000206805F01DFD2068818841F02001818053
:103300002846FCF73BFFFFF7EFFD002070BDBDE84E
:10331000704000F0B1B800000D020003540000201E
:103320000E0200022DE9F04706464FF0FF39DFF8A4
:103330003C81D8F81400864202D14D48BDE8F087A0
:10334000D8F81800864202D149480D30F6E7D8F87F
:103350001000864202D346480D38EFE7FCF706FF1F
:103360000746C6EBC600D8F80C1000EB400001EB96
:103370008004A588E80706D03D4C0A3C3846FCF797
:10338000FDFE2046DAE7E8064FF0000A04D5B8F85B
:10339000000008B1A8F800A0680708D504F12800CB
:1033A00004F0EAFFA08820F00400A08009E005F006
:1033B000080005F40051084303D004F12800FFF78A
:1033C000C1FA15F0600F02D0204605F043FFA08837
:1033D00020F0020040F00100A080C4F83C90C4F846
:1033E00048A005F031F8DFF88490283809F1200969
:1033F000C9F8040020794FF00105C00624D504F176
:10340000280109F11800FFF7C3FAD8F81000D8F81E
:103410000C10C0EBC00000EB400001EB8000C9F8CD
:1034200000000661D9F80010A0888880D9F8000053
:10343000E168C160616A4162A5803846FCF79EFE82
:1034400005F096F9002079E7A580084804F12801E5
:103450003030FFF75BFA0748E168FFF7B3FAC4F8CA
:103460000CA03846FCF78AFE002067E754000020D5
:1034700014020002D815002070B5194CA4F12002E6
:10348000206812690169914201D3164870BD007924
:10349000400701D4002070BDFCF768FE0546206897
:1034A000C08804F0C1FF012814D920682830FFF734
:1034B00049FA2068818841F0040181802068C18830
:1034C000283004F079FF2846FCF758FEFFF70CFD82
:1034D000002070BD2846FCF751FE0248093070BD3F
:1034E0007400002007020002014903C97047000070
:1034F000A80000202DE9F04186B00026049641483E
:10350000816941F020018161816901F0200101910F
:10351000816941F010018161816901F0100101911F
:10352000816941F004018161816901F00401019127
:10353000816941F008018161806900F00800019013
:10354000012402940394022505952F4F02A93846C1
:10355000FDF756FE029503940496059502A9384698
:10356000FDF74EFE0420029003940496059502A9EF
:103570003846FDF745FE0820029003940496059511
:1035800002A93846FDF73CFE012211463846FDF7F8
:1035900038FF012202213846FDF733FF01220421C2
:1035A0003846FDF72EFF0294184E03960495DFF877
:1035B000608002A94046FDF723FE20020290039698
:1035C000049502A94046FDF71BFE4FF4407002909F
:1035D00010480390049402A93846FDF711FE00221A
:1035E00002210620FDF778FF0620FDF769FF002283
:1035F00002211720FDF770FF1720FDF761FF06B0CD
:10360000BDE8F081001002400010014000001110E0
:103610000008014000002110FEE770470907090E6D
:10362000002806DA00F00F0000F1E02080F8141DF9
:10363000704700F1E02080F80014704770B506462E
:10364000002505F1B000C0B200F0DEF8002000F067
:10365000DBF8102000F0D8F80024304600F08FF995
:10366000641CE4B2802CF8D36D1CEDB2082DE8D3B5
:1036700070BD000088B00FA0D0E900128068CDE9CD
:10368000051207900EA003C8CDE903010EA003C8E0
:10369000CDE901010EA00068009000F011F90021B1
:1036A00005AA084600F0FCF86A465021062000F002
:1036B000F7F8FEE753544D3332463130335242006F
:1036C0004C4F4E473A000000776F72642E000000A6
:1036D000574A000010B586B00C48816941F01001CE
:1036E0008161806900F0100001904FF440700290F9
:1036F0000124039404940320059002A90448FDF7D3
:103700007FFD04484460046006B010BD0010024014
:1037100000100140A001224270B5094C0125C4F8F7
:103720008050052004F02EF90020E067052004F009
:1037300029F9E567206808B1012070BD002070BD3F
:10374000240122422DE9F04105460024104E0027B5
:103750004FF00108C6F8A071280602D5C6F8A4816A
:1037600001E0C6F8A4716806050E052004F00AF908
:10377000C6F8A081052004F005F9641CE4B2082C09
:10378000E8D3C6F8A071BDE8F041FFF7C5BF00005F
:103790000000224270B50B48016821F070410160C1
:1037A000016841F040510160074C012060602060D9
:1037B000042004F0E7F800256560042004F0E2F836
:1037C000256070BD000C0140A001224210B50C48DC
:1037D000016821F070410160016841F040510160D1
:1037E000084C002020606060042004F0CBF8012029
:1037F00020606060BDE81040042004F0C3B8000001
:10380000000C0140A001224210B50446FFF7C2FFA0
:103810007820FFF797FF0020FFF794FF2046FFF77F
:1038200091FFBDE81040FFF7D1BF10B50C46B03096
:10383000C0B2FFF7E9FF102000EB1410FFF7E4FF20
:1038400004F00F00BDE81040FFF7DEBF2DE9F041A6
:1038500007468846203AD5B2002441463846FFF74D
:10386000E4FF0E4E04EB0510305C00F088F8641C99
:10387000E4B2082CF6D37F1CF8B24146FFF7D5FF1F
:10388000002404EB05103044007A00F078F8641C42
:10389000E4B2082CF5D3BDE8F0810000F89A0008E6
:1038A00070B506460D46144606E029463046FFF739
:1038B000CDFF0835EDB2641C2278002AF5D170BD29
:1038C00010B5FFF707FFAE20FFF79EFF0220FFF7BE
:1038D0009BFF1020FFF798FF4020FFF795FF812006
:1038E000FFF792FFCF20FFF78FFFA120FFF78CFF9C
:1038F000C820FFF789FFA620FFF786FFA820FFF763
:1039000083FF3F20FFF780FFD320FFF77DFF0020DC
:10391000FFF77AFFD520FFF777FF8020FFF774FFCE
:10392000D920FFF771FFF120FFF76EFFDA20FFF7D4
:103930006BFF1220FFF768FFDB20FFF765FF4020D9
:10394000FFF762FF2020FFF75FFF0220FFF75CFF19
:103950008D20FFF759FF1420FFF756FFA420FFF733
:1039600053FFA620FFF750FFAF20FFF74DFFAF201A
:10397000FFF74AFFBDE810400020FFF75FBE10B51B
:103980000446FFF707FF7820FFF7DCFE4020FFF733
:10399000D9FE2046FFF7D6FEBDE81040FFF716BF60
:1039A0000260C160416081600020704770B50024F2
:1039B00083680FE0C56806685B1C35449D4200D8EB
:1039C000C36845689D4207D011F8015B8668357071
:1039D0008360641C9442EDD3204670BD08B507494E
:1039E0004FF4FA520968B1FBF2F14143009100BF74
:1039F0000098411E0091FAD208BD00002800002066
:103A00007047000006480068002801D005F0D2BBCE
:103A10000448D0E90012491C42F1000206C0704778
:103A20009C000020A800002030B58FB0282105A8F8
:103A3000FCF738FC14216846FCF734FC01210591A1
:103A40000804069000240794099102250C950D9016
:103A5000C0000E9005A8FDF77DFF08B1FDF7E4F862
:103A60000F2000900195029403940494012168466C
:103A7000FDF752FE002801D0FDF7D6F80FB030BD9B
:103A80000D48016841F00101016041680B4A114095
:103A9000416001680A4A11400160016821F48021F7
:103AA0000160416821F4FE0141604FF41F01816013
:103AB0000449C00308607047001002400000FFF88E
:103AC000FFFFF6FE08ED00E00D4908680269D243E9
:103AD000D20714D1921E02610A48028842F40042C1
:103AE00002800868016A41F21112114207D1016A8D
:103AF0009210114203D1016821F001010160704769
:103B0000380E00200004002008B5124AD36943F0A3
:103B10000103D361D26902F0010200920E4A4FF014
:103B200080431360516000219160D060116180205A
:103B300090611046FEF7CEF80748FEF7FBF8012229
:103B400000211C20FDF7C8FCBDE808401C20FDF743
:103B5000B7BC000000100240380E0020F0B502682B
:103B6000164C174D174E4FF08047A04205D0B84273
:103B700003D0A84201D0B04203D122F070034A68BA
:103B80001A43A04205D0B84203D0A84201D0B042A7
:103B900003D122F44073CA681A4322F080024B69B1
:103BA000134303608A68C2620A688262A04201D13C
:103BB0000969016301214161F0BD0000002C014051
:103BC00000040040000800401CB500250195009548
:103BD000DFF8EC80DFF8ECA004274FF0FF394FF45A
:103BE000FA7400974B466A4601A9D8F80800FFF717
:103BF0004FF90028F5D10198FA2811D0B0F5967F39
:103C000017D0A04203D0B0F57A7F47D137E02E48D5
:103C10000068012842D101215046FDF7EEFB3DE04E
:103C20002A480068012839D102215046FDF7E5FBFA
:103C300034E008215046FDF7E0FB03210920FDF7A1
:103C40000DF806463046FCF737FC4FF06632204B45
:103C5000FCF751FBFCF769FCFCF73BFC1FFA80FB0F
:103C60001CA0FCF79FFF26A0FCF79CFF5A4631469C
:103C70002DA0FCF797FF17A0FCF794FF0EE015A00E
:103C8000FCF790FF32A0FCF78DFF39A0FCF78AFF0C
:103C900040A0FCF787FF0FA0FCF784FF0199A14229
:103CA00001D1012002E00020FA2907D000221043B0
:103CB00002D042A0FCF776FF019592E70122F6E7D9
:103CC0000C00002000100140000000200400002033
:103CD00066664A3F0D0A202A2A2A2A2A2A2A2A2ADE
:103CE0002A2A2A2A2A2A2A2A2A2A2A2A2A2A2A2A34
:103CF0002A2A2A2A2A2A2A2A2A200D0A0000000013
:103D00000D0A20202020202020202020414443B5DF
:103D1000E7D1B9BCECB2E2C4A3BFE9202020202047
:103D20002020200D0A0000000D0A20BBF1C8A1B51B
:103D3000BDB2C9D1F9D4ADCABCD6B53D2564A3ACDA
:103D4000B5E7D1B9D6B53D25642E3256200D0A000F
:103D50000D0A202020202020203234433032B4E6C7
:103D6000C8A1C4A3BFE9202020202020200D0A00E4
:103D70000D0A2037462058582D2D2D2D2D2D2D2D57
:103D80002D2D2D2D2DB1A3B4E67878C4DAC8DD2011
:103D90000D0A00000D0A2035462020202D2D2D2D46
:103DA0002D2D2D2D2D2D2D2D2DB6C1C8A1B1A3B496
:103DB000E6B5C4C4DAC8DD200D0A00005243564DF2
:103DC00053473A2020204F4B3A25640D0A0000004B
:103DD00001B509480023042269468068FFF76DF8A1
:103DE0000146002906D005A0FCF7DCFE41F2883030
:103DF000FFF762FA08BD00000C00002073656E64D6
:103E0000206D657373616765206661696C757265A5
:103E10002C6572726F723A25780D0A0017B583B05F
:103E200001230021CDE90023029104AB0A4A0121BC
:103E3000FFF79AF8044664B9BDF81000FFF7E8F8F8
:103E4000044634B1214605A0FCF7ACFE204606B07E
:103E500010BD2046FBE70000D13D0008737461727D
:103E60007420736F6674776172652074696D657212
:103E7000206572726F723A25780D0A002DE9F041C3
:103E8000044620680169E26821F440511143016150
:103E9000A16820690143606901432068C26841F25A
:103EA0000C639A430A43C26020684169A26921F405
:103EB0004071114341615749206864253226884288
:103EC00054D1FDF7FDFC00EBC00101EB001061686F
:103ED0008900B0FBF1F7FDF7F3FC00EBC00101EB4B
:103EE000001061688900B0FBF1F0B0FBF5F06FF0F5
:103EF0001801484307EB800006EB0010B0FBF5F01B
:103F000000F0F007FDF7DCFC00EBC00101EB001056
:103F100061688900B0FBF1F0B0FBF5F007EB00172A
:103F2000FDF7CEFC00EBC00101EB001061688900D9
:103F3000B0FBF1F8FDF7C4FC00EBC00101EB001091
:103F400061688900B0FBF1F0B0FBF5F06FF018018B
:103F5000484308EB800006EB0010B0FBF5F0216849
:103F600000F00F0038448860BDE8F081FDF798FC50
:103F700000EBC00101EB001061688900B0FBF1F7B4
:103F8000FDF78EFC00EBC00101EB001061688900B9
:103F9000B0FBF1F0B0FBF5F06FF01801484307EB10
:103FA000800006EB0010B0FBF5F000F0F007FDF725
:103FB00077FC00EBC00101EB001061688900B0FBE9
:103FC000F1F0B0FBF5F007EB0017FDF769FC00EB33
:103FD000C00101EB001061688900B0FBF1F8FDF74A
:103FE0005FFC00EBC00101EB001061688900B0FBD1
:103FF000F1F0B0FBF5F06FF01801484308EB8000DA
:1040000006EB0010B0FBF5F0216800F00F0038441B
:104010008860A9E7003801402DE9F04104460E46CA
:1040200017469846069D1DE0681C1BD02DB1FDF774
:10403000EFF9A0EB0800A84214D92068C16821F468
:10404000D071C1602068416921F0010141612020E7
:1040500084F8390084F83A00002084F838000320FE
:10406000BDE8F0812068006836EA000004D0002036
:10407000B842D9D00020F3E70120F9E77CB50F4C16
:10408000206800680E4DC043800607D42868019060
:10409000012201A9A4F58260FFF788FC206801686D
:1040A000C943090704D4296801916FF00801016030
:1040B00020680168406800907CBD0000AC090020C9
:1040C0000438014008B5164800680068C0438006FF
:1040D00020D44FF47A73012269461148FDF7A8FEF7
:1040E00010490888000415D40888B0F5C87F12D29A
:1040F0000D48002203685A620A8822B900680268E3
:1041000042F0010202609DF800300888421C0A80DB
:1041100006490B5408BD088840F40040088008BDDB
:10412000780E002000040020380E002048100020E7
:1041300070B586B006462C49886940F00800886151
:10414000886900F008000190C86940F48020C861C7
:10415000C86900F4802001900815029002200390A5
:104160000120049003200590204C02A92046FDF771
:1041700047F8E01402900025039502A92046FDF7B8
:104180003FF81C4C1A4820606660A560E560256118
:10419000A5610C2060612046FDF7D8FD2068C1684C
:1041A00041F02001C1602720FDF78AF90222002199
:1041B0002720FDF791F941F61F416320FFF7A4FC8A
:1041C0000D480068016A41F21112114207D1016ADB
:1041D0009210114203D1016821F0010101600748EA
:1041E000058006B070BD000000100240000C0140C8
:1041F00000480040780E0020380E00200004002007
:1042000010B501281ED110498202A1F11000FFF75C
:10421000C7FB0F4C0D4820604FF4E1306060002078
:10422000A060E0602061A0610C216161E061204636
:10423000FDF78CFD2068C16841F02001C16005498F
:104240000120087010BD0000AC05002000380140BE
:10425000AC090020FD00002010B5002401280FD17A
:104260000848007800B1144654B192B2642306485D
:10427000FDF747FE044801680B68DB435B06FBD48F
:10428000204610BDFD000020AC090020FEE7000024
:104290007CB506460C46002096F8DA20012A03D0A9
:1042A000022A01D0032A14D16B4601AA012130460B
:1042B00000F09EF901994FF47F02914202D80099D3
:1042C000914206D9002804D124B11049304601F0AA
:1042D000AEFF7CBD0422FF21304600F0D3FE044631
:1042E00000227021304600F0CDFE40EA0405002295
:1042F000FF21304600F0C6FE40EA0504002280217E
:10430000304600F0BFFE20437CBD00003402002098
:10431000F8B50746002401220B21384600F0B2FE12
:10432000064600220B21384600F0ACFE40EA0605A6
:104330006A461321384600F034FB2843641CE4B27B
:104340009DF80010490703D0032C01D20028E2D0C9
:10435000032C01D36FF00B00F8BD00002DE9F041F4
:1043600092B004460123FE228921204600F068FE17
:1043700020B900228821204600F084FE002684F81F
:10438000F0604FF47A70A4F852014FF4C870A4F8AA
:1043900054015548C4F858015448C4F8D400266262
:1043A00002A9204600F0ABF805464DB98DF808602B
:1043B0008DF80960402202A904F11000FBF759FFB3
:1043C00004F59A74642020804FF4617060804FF48B
:1043D000FA70A0804FF42060208101272777A4F590
:1043E0009A7401228021204600F04CFE40EA050824
:1043F0000122FF21204600F045FE40EA0805002288
:104400001146204600F03EFE40EA050801AA91212F
:10441000204600F0C6FA40EA08059DF8040084F83A
:104420003A0101220021204600F02CFE40EA050856
:104430000022FF21204600F025FE40EA0805002268
:104440008021204600F01EFE2843002538B9A9B27D
:104450000122204600F09FFB6D1C062DF6DB20B9E3
:1044600000220221204600F096FB20B90022032101
:10447000204600F090FB20B900220421204600F0E5
:104480008AFB20B900220521204600F084FB28B9D0
:104490004FF490120021204600F0C7FB28B94FF4DA
:1044A00080420121204600F0C0FB28B94FF40C12D5
:1044B0000221204600F0B9FB20B90022032120464A
:1044C00000F0B3FB48B9FF2084F83001FF2201213E
:1044D000204600F0D7FD84F83271002801D184F81D
:1044E000156112B0BDE8F081856B0100A470090070
:1044F00001F008B802460020127C0A70704770B5BF
:1045000006460D4629463046FFF7F4FF20B905F16F
:104510000801304600F041F8002802D14FF00001B8
:10452000297304D105F11001304600F0DFF920B9FC
:1045300005F11401304600F0E9F890B9002480B983
:1045400005EB84022432A1B2304600F079F840B97C
:104550002A191832A1B2304600F065F8641C062C06
:10456000EDDB20B905F13C01304600F0A0F9002850
:1045700005D1291D3046BDE8704000F0C5B870BDBA
:1045800010B50C462246092100F00BFA002803D191
:10459000217801F00101217010BD7CB505460C4663
:1045A00001AAF821284600F012FA20B96A4604212F
:1045B000284600F001FA002808D1BDF804201AB1FD
:1045C0000099B1FBF2F121602168A9617CBD38B589
:1045D0000C466A46132100F0E4F99DF8002002F031
:1045E0000703236012F0180F01D06FF0050038BDEB
:1045F000F8B5064615461C466A460E21304600F0C0
:10460000E6F9BDF800100905C9082960002809D19C
:104610006A460C21304600F0DAF9BDF800100905B1
:10462000C9082160F8BD03460020062903D3001FF6
:10463000002111707047194491F8281011707047CB
:104640002DE9F84305460E46174600208046062E03
:1046500020D2DFE806F00305111315156C6B1BE083
:104660006A464421284600F0B2F910B9BDF800109E
:104670004C024FF001080FE0EC6B0DE02C6C0BE0EE
:104680006A466421284600F0A2F928B9BDF8001056
:104690004C0201E06FF00300002803D1B8F1010FD4
:1046A00002D03C60BDE8F88305EB8601AA192CB165
:1046B0003C604C63012182F82810F3E7496B3960B4
:1046C000002182F82810EDE77CB50C4690F8DA104E
:1046D0000025012604290BD001AA142100F061F95C
:1046E000002804D19DF80410C9070BD026707CBDAA
:1046F0006946FFF76CFF0099042901D025707CBD45
:1047000026707CBD25707CBD01F0F1B901F051BA75
:1047100001F06CBA01F0B2BC2DE9F0418EB0054653
:104720000C460C230AAA1421284600F05BF9064621
:10473000002E60D10027A77527609DF833009DF8F3
:10474000321000EB012080B267609DF82F109DF8B9
:104750002E2001EB02210904CA09E2609DF8311004
:104760009DF8303001EB032189B2490221619DF8A7
:104770002B109DF82A3001EB03218BB2A3829DF808
:1047800028C0B5F8521195F831614FF47A78414557
:104790001DD0414301F5FA7191FBF8F080B2298CEC
:1047A00089B295F81C80B8F1000F10D05943B2EBD4
:1047B000212F06D116B142F2B82008E048F6E020D9
:1047C00005E05043A2EB2121B0FBF1F080B226B10D
:1047D000810821818001E07501E02081E7750DA845
:1047E000CDE900406146284601F04CFB064616B96B
:1047F0009DF83400207606BB05F150011C220D46C1
:1048000003A8FBF736FD2089ADF81400E07D8DF894
:1048100023006089ADF8160060680490E068069097
:1048200020690790A08AADF82000207E8DF8240032
:104830001C2203A92846FBF71CFD0EB03046BDE83C
:10484000F08138B505460C46002000906A460121EB
:10485000284600F0A6F830B923469DF80020002134
:10486000284604F0C1FD30B9A31C9DF800200121A9
:10487000284604F0B9FD30B9631C9DF800200221E0
:10488000284604F0B1FD30B9E31C9DF80020032157
:10489000284604F0A9FD002806D1231D9DF800201C
:1048A0000421284604F0A0FD38BD01F06CBC38B5E9
:1048B00005460C466A460121284600F072F850B9B8
:1048C0009DF8001085F83011090602D501212170EC
:1048D00001E000212170002802D1217885F84C10D8
:1048E00038BD02460020127F0A70704738B5044672
:1048F0000D466A462021204600F069F8002807D1BD
:10490000BDF800202AB1D2002A602262012121775D
:1049100038BD216A29600021217738BD012301F0CB
:104920002CBD01F04ABD38B5044669462046FFF764
:10493000E1FD9DF80010014302D1204600F020FA6D
:1049400010B9204601F0C7FC9DF80010014302D1C8
:10495000032184F8321138BD70B504460D4600219C
:10496000204600F052F810B92046FFF7DCFF18B9D6
:1049700029462046FFF7D0FE002805D12046BDE895
:1049800070400021FFF7C4BC70BD08B500200021B5
:10499000009102E00099491C00910099FA29F9D38D
:1049A00008BD10B5002490F85C0101F086FE08B146
:1049B0006FF01304204610BD10B5002490F85C0180
:1049C00001F07EFE08B16FF01304204610BD10B553
:1049D000002490F85C0101F094FE08B16FF013041C
:1049E000204610BD10B50024402B00D3241F90F8A2
:1049F0005C019BB201F07AFE08B16FF0130420460F
:104A000010BD4A088A2100F03DBB02460020032960
:104A10000BD003DC49B1012904D106E0142904D0EC
:104A2000152902D06FF007007047117470472DE907
:104A3000F0410446069F16461D460020002903D07B
:104A40006FF00900BDE8F081142E08D0152E10D0AB
:104A5000052D76D2DFE805F076787A7C7E0037B1D6
:104A600001222046BDE8F041842100F00BBB10225A
:104A7000F7E70122FF21204600F004FB0546002253
:104A80001146204600F0FEFA40EA05060022FF210A
:104A9000204600F0F7FA40EA060501228021204670
:104AA00000F0F0FA40EA050602228521204600F0D7
:104AB000E9FA40EA06050422FF21204600F0E2FA66
:104AC00040EA05060022CD21204600F0DBFA40EA4C
:104AD00006051122CC21204600F0D4FA40EA050652
:104AE0000722FF21204600F0CDFA40EA0605002209
:104AF000BE21204600F0C6FA40EA05060622FF2144
:104B0000204600F0BFFA40EA06050922CC212046E3
:104B100000F0B8FA40EA05060022FF21204600F026
:104B2000B1FA40EA06050122FF21204600F0AAFA68
:104B300040EA050600221146204600F0A3FA304361
:104B400080E709E0002209E0012207E0022205E0F7
:104B5000032203E0042201E06FF00A0018B90A21E1
:104B6000204600F08FFA30B947B11023EF2284219C
:104B7000204600F065FA002803D004E04FF000035F
:104B8000F4E784F8DA50DBD12046BDE8F0414FF07D
:104B90000001FFF7BDBB2DE9F04104460D46174665
:104BA0000020002600230021021F062D01D31046FD
:104BB0002EE057B104EB85035E6B0123062D26D250
:104BC000DFE805F005080F12151D0121F6E784F84E
:104BD00028301DE0C6F34F224421204600F05DFA44
:104BE00016E084F82A3013E084F82B3010E04806F1
:104BF000030EFE226021204600F022FA08E008079A
:104C0000030EEF226021204600F01AFA00E0104661
:104C1000002804D1611927B1012281F82820BDE8BC
:104C2000F081002281F82820F9E770B514460022AF
:104C3000431893F8283000EB8105002B08D0C4F30B
:104C40004F23062918D2DFE801F005070D0F1111D7
:104C50006C6315E0446311E01A46442100F01DFA2C
:104C600002460BE0C46309E0046407E01A466421CD
:104C700000F013FA024601E06FF0030202B96C6320
:104C8000104670BD01F0A5BD01F012BE01F02CBEB2
:104C900001F03ABE2DE9F84307460E469046002043
:104CA00000906A4601213846FFF77BFE05469DF8D5
:104CB0000040204605BB6FF00301B8F1010F06D09C
:104CC000052E2BD2DFE806F01B1E21242700052E1F
:104CD00013D2DFE806F00306090C0F0044F01004BD
:104CE0001DE044F028041AE044F0040417E044F006
:104CF000400414E044F0800411E00D460FE004F09D
:104D0000EF040CE004F0D70409E004F0FB0406E033
:104D100004F0BF0403E004F07F0400E00D46844289
:104D20000FD02DB922460121384600F0ABF90546D7
:104D3000002D01D187F8304103D179693846FFF75A
:104D4000A1FF2846BDE8F88301F033BE70B50446E4
:104D50000D460020217FB4F8522100290BD0B2F576
:104D60007A7F0AD000222021204600F096F9002800
:104D700000D1256270BD256270BDC5F3CF02F2E798
:104D80002DE9FC410646012501A93046FFF7B2FB9B
:104D900001228021304600F075F90122FF213046C2
:104DA00000F070F900221146304600F06BF996F8D9
:104DB0003A219121304600F065F901220021304668
:104DC00000F060F90022FF21304600F05BF900227C
:104DD0008021304600F056F901469DF8040040B1AC
:104DE0000424012824D0032831D06FF00700BDE847
:104DF000FC8101220021304600F044F90095002892
:104E0000F5D100244FF4FA6724B16A4600213046F8
:104E1000FFF7C7FD641C9DF8001035EA010102D1BF
:104E200008B9BC42F0D3BC42E1D36FF00600DEE724
:104E300019B901213046FFF72BFA02220021304632
:104E400000F020F90028D2D186F83241CFE719B915
:104E500001213046FFF71CFA04220021304600F001
:104E600011F90028C3D186F83241C0E770B598B077
:104E70000546402108A8FBF715FA00260796069676
:104E8000059604960121284600F0A2FB95F813111F
:104E900095F81421012A05D801D1202902D842B958
:104EA0000C2906D905AA04A9284601F086FA044669
:104EB00003E0284601F028FD0446514924B995F83D
:104EC000500108B9D5F84C111CB9284601F0AFF9CA
:104ED00004463CB900220423114628460096FFF7F9
:104EE000A6FD04469CB90122FF21284600F0CAF81D
:104EF000044607AA84212846FFF769FD40EA040614
:104F00000022FF21284600F0BDF840EA0604002CEC
:104F100005D1BDF81C004FEA0010C5F8D40004D13B
:104F200008A92846FFF7EBFA04464CB906A928461B
:104F3000FFF726FB04461CB99DF8180085F83101DF
:104F40002CB9402208A905F11000FBF792F954B9D9
:104F500006AA01212846FFF724FD04461CB99DF846
:104F6000180085F830012CB9002211462846FFF7B9
:104F700091FE04462CB9002202212846FFF78AFE42
:104F80000446002C03D14FF0030085F8320106D10E
:104F900003AA4FF000012846FFF787FC0446002CC7
:104FA00003D19DF80C0085F8E80006D103AA4FF064
:104FB00001012846FFF779FC0446002C03D19DF837
:104FC0000C0085F8E00006D102AA4FF00301284644
:104FD00002F081FD0446002C02D10298C5F8E400DD
:104FE00006D102AA4FF00401284602F074FD0446DF
:104FF00014B90298C5F8DC0018B0204670BD000056
:105000004101002002A0FBF7CDFD04F0F9FCFCE714
:105010000D0A202A2A2A2A2A2A2A2A2A2A2A2A2A37
:105020002A2A2AB2E2CAD4B5E3312A2A2A2A2A2A0B
:105030002A2A2A2A2A2A2A2A2A2A2A2A200D0A0041
:105040002DE9F843884617469946002490F85C619C
:105050006A464146304601F030FB6FF0130500B15F
:105060002C4664B99DF80000384040EA09000090E1
:1050700002464146304601F009FE00B12C4620466A
:10508000BDE8F88310B5002490F85C0101F0FEFD46
:1050900008B16FF01304204610BD10B5002490F83D
:1050A0005C0101F004FE08B16FF01304204610BD4E
:1050B00010B50024402B00D3241F90F85C019BB254
:1050C00001F0EAFD08B16FF01304204610BD0000A6
:1050D0002DE9F0430546DDE9079CDDE909674FF05E
:1050E0000008B5F85401D5F8585100FB05F4803498
:1050F000250A45430024002A0AD0880200EB52000A
:10510000B0FBF2F000EB4000404300F50040040C1F
:1051100003FB09F303F50043190C49430CF5004068
:10512000000CC01C0622B0FBF2F0C0EBC000B0F5D2
:10513000803F01D31C4809E00CF1030CBCFBF2F0EA
:10514000C0EBC00000F50040000C4043FE220844C4
:1051500000EB5600B0FBF6F080037F30B0FBF2F0BE
:10516000604300F5FA704FF47A71B0FBF1F0000182
:1051700000F5FA70B0FBF1F4402005F12001B1FB1D
:10518000F0F001F03FF8064624B105EB5400B0FB07
:10519000F4F000E0002001F035F83E60864200D9CE
:1051A00038604046BDE8F0830000F0FF40F27760D1
:1051B00001EBC1010902A1FB000170472DE9FF4F7E
:1051C0008DB004468B46DFF82492206A0790DBF806
:1051D00010004FF47A714843000C0890DBF80C0083
:1051E000059006AA5946204600F0A8FF07AA59468E
:1051F000204600F0B1FF804606984FF47A7148438C
:1052000000F50040060CDDF81CA008460AFB00FA79
:10521000BAF5481F01D94FF4481AB8F1000F31D13F
:10522000D4F8DC000C9094F8E05020462A460C9903
:1052300000F0E2F80746D4F8E4000B9094F8E82078
:1052400020460B9900F0D8F801460320082D00D124
:10525000022039444143C80200F5FA704FF47A71D4
:10526000B0FBF1F040F27762504300F5FA70B0FB0A
:10527000F1F706988030000A00FB07F180310D0A33
:1052800000020690B8F1000F03D0404611B0BDE80F
:10529000F08F0EB14DB109E00F98C0F80090C4F83E
:1052A00040911098002101609EE001254FF4487064
:1052B0000A9008980004B0FBF6F84D48804500D9E4
:1052C00080464FF4167008FB00F805EB450080009F
:1052D00000F098FF40000990BBF808104548414392
:1052E0003004CAF1000200EB420202F5FA724FF4F8
:1052F0007A70B2FBF0F2431003EB0643B3FBF0F01D
:105300001202B2FBF0F0002800DA404200029BF8E3
:10531000182012B14FF4803A0FE041F25C22B1FB49
:10532000F2F1C0F58030484300F50040000C00F574
:105330008030400840434FEA903A4FF448710AFBEE
:1053400001F000F50040000C404308F50041090C55
:105350004943084400F056FF000432306421B0FB9A
:10536000F1F10998B1FBF0F040F6B531484341F254
:10537000883108444900B0FBF1F64FF47040864292
:1053800000D90646DDE90B10084400F5FA704FF429
:105390007A7BB0FBFBF04FF4C81101EB5001B1FB7D
:1053A000F0F000F02FFF000200F5FA70B0FBFBF008
:1053B00076434043304400F025FF594648430DB141
:1053C000484500D948460F990860C4F840010A9939
:1053D0001098CDE9018703900091DDE9052153463E
:1053E0002046FFF775FE804640464FE7AE878F02A6
:1053F000666666009A99060000B50B461146FFF7EF
:10540000D5FE00F5FA704FF47A71B0FBF1F04B4322
:1054100003EB5001B1FBF0F000BD00B50B461146A7
:10542000FFF7C4FE00F5FA704FF47A71B0FBF1F0AB
:10543000434303F5FA73B3FBF1F000BD2DE9F041EE
:1054400004460F4615460221204600F0C1F80646E4
:105450005EB994F8F10058B194F8F200387004F194
:10546000F30105F14000FAF73DFF3046BDE8F08159
:105470000020387085F84000F7E7C1B2000A81408B
:10548000491C08467047401C4006000E7047F8B59E
:105490000746002283213846FFF7F4FD044620002A
:1054A00013D100254FF4FA666A4683213846FFF788
:1054B00078FA04469DF80000204302D16D1CB542E5
:1054C000F2D3B54201D36FF006040122832138469E
:1054D000FFF7D8FD2043F8BD00220021002809D0A5
:1054E000401E02E04008491C89B2020AFAD161F369
:1054F0001F2082B210467047FF2101EB5000C0B25E
:10550000704700007CB506460C4622466946304688
:10551000FFF794FF054605BB9DF8000040B1222827
:105520000BD8202809D019A12046FAF7DBFE0FE09E
:1055300019A12046FAF7D6FE0AE0272804D219A1BD
:105540002046FAF7CFFE03E019A12046FAF7CAFE7B
:105550001DA104F12000FAF7C5FE35B904F160027F
:10556000C0213046FFF71DFA054665B901AAC221E0
:105570003046FFF716FA0546012004F8610F9DF842
:1055800004000009607028467CBD0000564C35338D
:105590004C30582054533100564C35334C30582041
:1055A00054533000564C35334C305820545332004D
:1055B000564C35334C305820455331206F72206C97
:1055C0006174657200000000564C35334C30580051
:1055D0002DE9F04F8FB004460E464FF0000BD84631
:1055E000C14600200A9009904FF4C8500890002747
:1055F0004FF0000A94F8F050072D7DD00122802151
:105600002046FFF73FFD83460122FF212046FFF79A
:1056100039FD40EA0B0B002211462046FFF732FD10
:1056200040EA0B0B0622FF212046FFF72BFD40EA44
:105630000B0B0EAA83212046FFF7B3F940EA0B0BB0
:105640009DF83800832140F004022046FFF71AFD40
:1056500040EA0B0B0722FF212046FFF713FD40EA2B
:105660000B0B012281212046FFF70CFD40EA0B0BBA
:105670002046FFF78AF940EA0B0B012280212046E1
:10568000FFF700FD40EA0B0BF00754D0E80752D1BA
:105690006B2294212046FFF7F5FC40EA0B082046D8
:1056A000FFF7F5FE40EA08090DAA90212046FFF712
:1056B00083F940EA090B0D98C0F30628C0F3C039FE
:1056C000242294212046FFF7DDFC40EA0B0B204604
:1056D000FFF7DDFE40EA0B0B0DAA90212046FFF7F5
:1056E0006BF940EA0B0B0D98010E8DF80410010CBC
:1056F0008DF80510010A00E0B2E18DF806108DF872
:105700000700252294212046FFF7BCFC40EA0B0B42
:105710002046FFF7BCFE40EA0B0B0DAA9021204665
:10572000FFF74AF940EA0B0B0D98010E8DF80810AF
:10573000000C8DF80900B0077ED5A8077CD40222A2
:1057400094212046FFF79EFC40EA0B0B2046FFF712
:105750009EFE40EA0B0B0CAA90212046FFF721F990
:1057600040EA0B0B7B2294212046FFF78BFC40EA9A
:105770000B0B2046FFF78BFE40EA0B0B0BAA902188
:105780002046FFF70EF940EA0B0B772294212046C2
:10579000FFF778FC40EA0B0B2046FFF778FE40EA63
:1057A0000B0B0DAA90212046FFF706F940EA0B0BE0
:1057B0000D98410E8DF80C10C0F386418DF80D1038
:1057C000C0F3C6218DF80E10C0F306118DF80F102E
:1057D0000007400E0E90782294212046FFF752FCDD
:1057E00040EA0B0B2046FFF752FE40EA0B0B0DAAD6
:1057F00090212046FFF7E0F840EA0B0B9DF83810A7
:105800000D9801EB50718DF81010C0F386518DF892
:105810001110C0F3C6318DF81210C0F306218DF8B7
:105820001310C0F346018DF81410C007400E0E90FF
:1058300079229421204600E052E0FFF723FC40EA61
:105840000B0B2046FFF723FE40EA0B0B0DAA90211D
:105850002046FFF7B1F840EA0B0B9DF838100D9881
:1058600001EB90618DF81510C0F3C6418DF816104C
:10587000C0F306318DF81710C0F346118DF81810DB
:10588000C006400E0E907A2294212046FFF7FAFBC4
:1058900040EA0B0B2046FFF7FAFD40EA0B0B0DAA7E
:1058A00090212046FFF788F840EA0B0B9DF838104E
:1058B0000D9801EB90718DF81910C0F3C6518DF859
:1058C0001A10C0F306418DF81B10C0F346218DF865
:1058D0001C10C0F386008DF81D0000208DF81E00FE
:1058E00070077CD568077AD47B2294212046FFF785
:1058F000C9FB40EA0B072046FFF7C9FD40EA070A4B
:105900000AAA90212046FFF757F840EA0A077C22AE
:1059100094212046FFF7B6FB40EA070A2046FFF72E
:10592000B6FD40EA0A0709AA90212046FFF744F88D
:1059300040EA070A732294212046FFF7A3FB40EABE
:105940000A072046FFF7A3FD40EA070B0DAA9021A6
:105950002046FFF731F840EA0B0A0D9800064FEA9F
:10596000104B742294212046FFF78CFB40EA0A0773
:105970002046FFF78CFD40EA070A0DAA9021204639
:10598000FFF71AF840EA0A070D984BEA106A7522E9
:1059900094212046FFF776FB40EA070B2046FFF7ED
:1059A00076FD40EA0B070DAA90212046FFF704F888
:1059B00040EA070B0D980006070C7622942120463A
:1059C000FFF760FB40EA0B0B2046FFF760FD40EA63
:1059D0000B0B0DAA90212046FEF7EEFF00E004E03D
:1059E00040EA0B0B0D9847EA106700228121204600
:1059F000FFF748FB40EA0B0B0622FF212046FFF78A
:105A000041FB40EA0B0B0EAA83212046FEF7C9FF9B
:105A100040EA0B0B9DF83800832100F0FB02204682
:105A2000FFF730FB40EA0B0B0122FF212046FFF776
:105A300029FB40EA0B0B012200212046FFF722FB45
:105A400040EA0B0B0022FF212046FFF71BFB40EA38
:105A50000B0B002280212046FFF714FB40EA0B0BC2
:105A6000BBF1000F3FD1072D3DD0F0070DD0E80767
:105A70000BD184F8138184F8149101A923180A5CCE
:105A800083F82A21401C0628F8DBB0070ED5A807AA
:105A90000CD49DF8300084F8F1009DF82C0084F8B7
:105AA000F20004F1F30003A9FAF71CFC700716D505
:105AB000680714D40A98C4F818010998C4F81C019E
:105AC0004FEA4A20C4F8200100203FB10898381A54
:105AD0004FF47A1148430014404200B2E06035436D
